{
  "_format": "hh-sol-artifact-1",
  "contractName": "BE4T_Vault",
  "sourceName": "contracts/BE4T_Vault.sol",
  "abi": [
    {
      "inputs": [
        {
          "internalType": "address",
          "name": "_paymentToken",
          "type": "address"
        }
      ],
      "stateMutability": "nonpayable",
      "type": "constructor"
    },
    {
      "inputs": [],
      "name": "AccessControlBadConfirmation",
      "type": "error"
    },
    {
      "inputs": [
        {
          "internalType": "address",
          "name": "account",
          "type": "address"
        },
        {
          "internalType": "bytes32",
          "name": "neededRole",
          "type": "bytes32"
        }
      ],
      "name": "AccessControlUnauthorizedAccount",
      "type": "error"
    },
    {
      "inputs": [
        {
          "internalType": "address",
          "name": "sender",
          "type": "address"
        },
        {
          "internalType": "uint256",
          "name": "balance",
          "type": "uint256"
        },
        {
          "internalType": "uint256",
          "name": "needed",
          "type": "uint256"
        },
        {
          "internalType": "uint256",
          "name": "tokenId",
          "type": "uint256"
        }
      ],
      "name": "ERC1155InsufficientBalance",
      "type": "error"
    },
    {
      "inputs": [
        {
          "internalType": "address",
          "name": "approver",
          "type": "address"
        }
      ],
      "name": "ERC1155InvalidApprover",
      "type": "error"
    },
    {
      "inputs": [
        {
          "internalType": "uint256",
          "name": "idsLength",
          "type": "uint256"
        },
        {
          "internalType": "uint256",
          "name": "valuesLength",
          "type": "uint256"
        }
      ],
      "name": "ERC1155InvalidArrayLength",
      "type": "error"
    },
    {
      "inputs": [
        {
          "internalType": "address",
          "name": "operator",
          "type": "address"
        }
      ],
      "name": "ERC1155InvalidOperator",
      "type": "error"
    },
    {
      "inputs": [
        {
          "internalType": "address",
          "name": "receiver",
          "type": "address"
        }
      ],
      "name": "ERC1155InvalidReceiver",
      "type": "error"
    },
    {
      "inputs": [
        {
          "internalType": "address",
          "name": "sender",
          "type": "address"
        }
      ],
      "name": "ERC1155InvalidSender",
      "type": "error"
    },
    {
      "inputs": [
        {
          "internalType": "address",
          "name": "operator",
          "type": "address"
        },
        {
          "internalType": "address",
          "name": "owner",
          "type": "address"
        }
      ],
      "name": "ERC1155MissingApprovalForAll",
      "type": "error"
    },
    {
      "inputs": [],
      "name": "EnforcedPause",
      "type": "error"
    },
    {
      "inputs": [],
      "name": "ExpectedPause",
      "type": "error"
    },
    {
      "inputs": [
        {
          "internalType": "address",
          "name": "token",
          "type": "address"
        }
      ],
      "name": "SafeERC20FailedOperation",
      "type": "error"
    },
    {
      "anonymous": false,
      "inputs": [
        {
          "indexed": true,
          "internalType": "address",
          "name": "account",
          "type": "address"
        },
        {
          "indexed": true,
          "internalType": "address",
          "name": "operator",
          "type": "address"
        },
        {
          "indexed": false,
          "internalType": "bool",
          "name": "approved",
          "type": "bool"
        }
      ],
      "name": "ApprovalForAll",
      "type": "event"
    },
    {
      "anonymous": false,
      "inputs": [
        {
          "indexed": true,
          "internalType": "address",
          "name": "investor",
          "type": "address"
        },
        {
          "indexed": true,
          "internalType": "uint256",
          "name": "id",
          "type": "uint256"
        },
        {
          "indexed": false,
          "internalType": "uint256",
          "name": "quantity",
          "type": "uint256"
        },
        {
          "indexed": false,
          "internalType": "uint256",
          "name": "amountPaid",
          "type": "uint256"
        }
      ],
      "name": "Investment",
      "type": "event"
    },
    {
      "anonymous": false,
      "inputs": [
        {
          "indexed": true,
          "internalType": "address",
          "name": "account",
          "type": "address"
        },
        {
          "indexed": false,
          "internalType": "bool",
          "name": "status",
          "type": "bool"
        }
      ],
      "name": "KYCStatusChanged",
      "type": "event"
    },
    {
      "anonymous": false,
      "inputs": [
        {
          "indexed": false,
          "internalType": "address",
          "name": "account",
          "type": "address"
        }
      ],
      "name": "Paused",
      "type": "event"
    },
    {
      "anonymous": false,
      "inputs": [
        {
          "indexed": true,
          "internalType": "bytes32",
          "name": "role",
          "type": "bytes32"
        },
        {
          "indexed": true,
          "internalType": "bytes32",
          "name": "previousAdminRole",
          "type": "bytes32"
        },
        {
          "indexed": true,
          "internalType": "bytes32",
          "name": "newAdminRole",
          "type": "bytes32"
        }
      ],
      "name": "RoleAdminChanged",
      "type": "event"
    },
    {
      "anonymous": false,
      "inputs": [
        {
          "indexed": true,
          "internalType": "bytes32",
          "name": "role",
          "type": "bytes32"
        },
        {
          "indexed": true,
          "internalType": "address",
          "name": "account",
          "type": "address"
        },
        {
          "indexed": true,
          "internalType": "address",
          "name": "sender",
          "type": "address"
        }
      ],
      "name": "RoleGranted",
      "type": "event"
    },
    {
      "anonymous": false,
      "inputs": [
        {
          "indexed": true,
          "internalType": "bytes32",
          "name": "role",
          "type": "bytes32"
        },
        {
          "indexed": true,
          "internalType": "address",
          "name": "account",
          "type": "address"
        },
        {
          "indexed": true,
          "internalType": "address",
          "name": "sender",
          "type": "address"
        }
      ],
      "name": "RoleRevoked",
      "type": "event"
    },
    {
      "anonymous": false,
      "inputs": [
        {
          "indexed": true,
          "internalType": "address",
          "name": "investor",
          "type": "address"
        },
        {
          "indexed": true,
          "internalType": "uint256",
          "name": "id",
          "type": "uint256"
        },
        {
          "indexed": false,
          "internalType": "uint256",
          "name": "amount",
          "type": "uint256"
        }
      ],
      "name": "RoyaltiesClaimed",
      "type": "event"
    },
    {
      "anonymous": false,
      "inputs": [
        {
          "indexed": true,
          "internalType": "uint256",
          "name": "id",
          "type": "uint256"
        },
        {
          "indexed": false,
          "internalType": "uint256",
          "name": "amount",
          "type": "uint256"
        }
      ],
      "name": "RoyaltiesDistributed",
      "type": "event"
    },
    {
      "anonymous": false,
      "inputs": [
        {
          "indexed": true,
          "internalType": "uint256",
          "name": "id",
          "type": "uint256"
        },
        {
          "indexed": false,
          "internalType": "uint256",
          "name": "maxSupply",
          "type": "uint256"
        },
        {
          "indexed": false,
          "internalType": "uint256",
          "name": "price",
          "type": "uint256"
        },
        {
          "indexed": false,
          "internalType": "string",
          "name": "customUri",
          "type": "string"
        }
      ],
      "name": "SongAssetCreated",
      "type": "event"
    },
    {
      "anonymous": false,
      "inputs": [
        {
          "indexed": true,
          "internalType": "address",
          "name": "operator",
          "type": "address"
        },
        {
          "indexed": true,
          "internalType": "address",
          "name": "from",
          "type": "address"
        },
        {
          "indexed": true,
          "internalType": "address",
          "name": "to",
          "type": "address"
        },
        {
          "indexed": false,
          "internalType": "uint256[]",
          "name": "ids",
          "type": "uint256[]"
        },
        {
          "indexed": false,
          "internalType": "uint256[]",
          "name": "values",
          "type": "uint256[]"
        }
      ],
      "name": "TransferBatch",
      "type": "event"
    },
    {
      "anonymous": false,
      "inputs": [
        {
          "indexed": true,
          "internalType": "address",
          "name": "operator",
          "type": "address"
        },
        {
          "indexed": true,
          "internalType": "address",
          "name": "from",
          "type": "address"
        },
        {
          "indexed": true,
          "internalType": "address",
          "name": "to",
          "type": "address"
        },
        {
          "indexed": false,
          "internalType": "uint256",
          "name": "id",
          "type": "uint256"
        },
        {
          "indexed": false,
          "internalType": "uint256",
          "name": "value",
          "type": "uint256"
        }
      ],
      "name": "TransferSingle",
      "type": "event"
    },
    {
      "anonymous": false,
      "inputs": [
        {
          "indexed": false,
          "internalType": "string",
          "name": "value",
          "type": "string"
        },
        {
          "indexed": true,
          "internalType": "uint256",
          "name": "id",
          "type": "uint256"
        }
      ],
      "name": "URI",
      "type": "event"
    },
    {
      "anonymous": false,
      "inputs": [
        {
          "indexed": false,
          "internalType": "address",
          "name": "account",
          "type": "address"
        }
      ],
      "name": "Unpaused",
      "type": "event"
    },
    {
      "inputs": [],
      "name": "DEFAULT_ADMIN_ROLE",
      "outputs": [
        {
          "internalType": "bytes32",
          "name": "",
          "type": "bytes32"
        }
      ],
      "stateMutability": "view",
      "type": "function"
    },
    {
      "inputs": [],
      "name": "MINTER_ROLE",
      "outputs": [
        {
          "internalType": "bytes32",
          "name": "",
          "type": "bytes32"
        }
      ],
      "stateMutability": "view",
      "type": "function"
    },
    {
      "inputs": [
        {
          "internalType": "address",
          "name": "account",
          "type": "address"
        },
        {
          "internalType": "uint256",
          "name": "id",
          "type": "uint256"
        }
      ],
      "name": "balanceOf",
      "outputs": [
        {
          "internalType": "uint256",
          "name": "",
          "type": "uint256"
        }
      ],
      "stateMutability": "view",
      "type": "function"
    },
    {
      "inputs": [
        {
          "internalType": "address[]",
          "name": "accounts",
          "type": "address[]"
        },
        {
          "internalType": "uint256[]",
          "name": "ids",
          "type": "uint256[]"
        }
      ],
      "name": "balanceOfBatch",
      "outputs": [
        {
          "internalType": "uint256[]",
          "name": "",
          "type": "uint256[]"
        }
      ],
      "stateMutability": "view",
      "type": "function"
    },
    {
      "inputs": [
        {
          "internalType": "uint256",
          "name": "id",
          "type": "uint256"
        }
      ],
      "name": "claimRoyalties",
      "outputs": [],
      "stateMutability": "nonpayable",
      "type": "function"
    },
    {
      "inputs": [
        {
          "internalType": "uint256",
          "name": "",
          "type": "uint256"
        },
        {
          "internalType": "address",
          "name": "",
          "type": "address"
        }
      ],
      "name": "claimedRoyalties",
      "outputs": [
        {
          "internalType": "uint256",
          "name": "",
          "type": "uint256"
        }
      ],
      "stateMutability": "view",
      "type": "function"
    },
    {
      "inputs": [
        {
          "internalType": "uint256",
          "name": "id",
          "type": "uint256"
        },
        {
          "internalType": "uint256",
          "name": "_maxSupply",
          "type": "uint256"
        },
        {
          "internalType": "uint256",
          "name": "_pricePerToken",
          "type": "uint256"
        },
        {
          "internalType": "string",
          "name": "_customUri",
          "type": "string"
        }
      ],
      "name": "createSongAsset",
      "outputs": [],
      "stateMutability": "nonpayable",
      "type": "function"
    },
    {
      "inputs": [
        {
          "internalType": "uint256",
          "name": "id",
          "type": "uint256"
        },
        {
          "internalType": "uint256",
          "name": "totalAmount",
          "type": "uint256"
        }
      ],
      "name": "distributeRoyalties",
      "outputs": [],
      "stateMutability": "nonpayable",
      "type": "function"
    },
    {
      "inputs": [
        {
          "internalType": "bytes32",
          "name": "role",
          "type": "bytes32"
        }
      ],
      "name": "getRoleAdmin",
      "outputs": [
        {
          "internalType": "bytes32",
          "name": "",
          "type": "bytes32"
        }
      ],
      "stateMutability": "view",
      "type": "function"
    },
    {
      "inputs": [
        {
          "internalType": "bytes32",
          "name": "role",
          "type": "bytes32"
        },
        {
          "internalType": "address",
          "name": "account",
          "type": "address"
        }
      ],
      "name": "grantRole",
      "outputs": [],
      "stateMutability": "nonpayable",
      "type": "function"
    },
    {
      "inputs": [
        {
          "internalType": "bytes32",
          "name": "role",
          "type": "bytes32"
        },
        {
          "internalType": "address",
          "name": "account",
          "type": "address"
        }
      ],
      "name": "hasRole",
      "outputs": [
        {
          "internalType": "bool",
          "name": "",
          "type": "bool"
        }
      ],
      "stateMutability": "view",
      "type": "function"
    },
    {
      "inputs": [
        {
          "internalType": "uint256",
          "name": "id",
          "type": "uint256"
        },
        {
          "internalType": "uint256",
          "name": "quantity",
          "type": "uint256"
        }
      ],
      "name": "invest",
      "outputs": [],
      "stateMutability": "nonpayable",
      "type": "function"
    },
    {
      "inputs": [
        {
          "internalType": "address",
          "name": "account",
          "type": "address"
        },
        {
          "internalType": "address",
          "name": "operator",
          "type": "address"
        }
      ],
      "name": "isApprovedForAll",
      "outputs": [
        {
          "internalType": "bool",
          "name": "",
          "type": "bool"
        }
      ],
      "stateMutability": "view",
      "type": "function"
    },
    {
      "inputs": [
        {
          "internalType": "address",
          "name": "",
          "type": "address"
        }
      ],
      "name": "isKYCVerified",
      "outputs": [
        {
          "internalType": "bool",
          "name": "",
          "type": "bool"
        }
      ],
      "stateMutability": "view",
      "type": "function"
    },
    {
      "inputs": [
        {
          "internalType": "address",
          "name": "user",
          "type": "address"
        }
      ],
      "name": "manualVerify",
      "outputs": [],
      "stateMutability": "nonpayable",
      "type": "function"
    },
    {
      "inputs": [],
      "name": "pause",
      "outputs": [],
      "stateMutability": "nonpayable",
      "type": "function"
    },
    {
      "inputs": [],
      "name": "paused",
      "outputs": [
        {
          "internalType": "bool",
          "name": "",
          "type": "bool"
        }
      ],
      "stateMutability": "view",
      "type": "function"
    },
    {
      "inputs": [],
      "name": "paymentToken",
      "outputs": [
        {
          "internalType": "contract IERC20",
          "name": "",
          "type": "address"
        }
      ],
      "stateMutability": "view",
      "type": "function"
    },
    {
      "inputs": [
        {
          "internalType": "bytes32",
          "name": "role",
          "type": "bytes32"
        },
        {
          "internalType": "address",
          "name": "callerConfirmation",
          "type": "address"
        }
      ],
      "name": "renounceRole",
      "outputs": [],
      "stateMutability": "nonpayable",
      "type": "function"
    },
    {
      "inputs": [
        {
          "internalType": "bytes32",
          "name": "role",
          "type": "bytes32"
        },
        {
          "internalType": "address",
          "name": "account",
          "type": "address"
        }
      ],
      "name": "revokeRole",
      "outputs": [],
      "stateMutability": "nonpayable",
      "type": "function"
    },
    {
      "inputs": [
        {
          "internalType": "address",
          "name": "from",
          "type": "address"
        },
        {
          "internalType": "address",
          "name": "to",
          "type": "address"
        },
        {
          "internalType": "uint256[]",
          "name": "ids",
          "type": "uint256[]"
        },
        {
          "internalType": "uint256[]",
          "name": "values",
          "type": "uint256[]"
        },
        {
          "internalType": "bytes",
          "name": "data",
          "type": "bytes"
        }
      ],
      "name": "safeBatchTransferFrom",
      "outputs": [],
      "stateMutability": "nonpayable",
      "type": "function"
    },
    {
      "inputs": [
        {
          "internalType": "address",
          "name": "from",
          "type": "address"
        },
        {
          "internalType": "address",
          "name": "to",
          "type": "address"
        },
        {
          "internalType": "uint256",
          "name": "id",
          "type": "uint256"
        },
        {
          "internalType": "uint256",
          "name": "value",
          "type": "uint256"
        },
        {
          "internalType": "bytes",
          "name": "data",
          "type": "bytes"
        }
      ],
      "name": "safeTransferFrom",
      "outputs": [],
      "stateMutability": "nonpayable",
      "type": "function"
    },
    {
      "inputs": [
        {
          "internalType": "address",
          "name": "operator",
          "type": "address"
        },
        {
          "internalType": "bool",
          "name": "approved",
          "type": "bool"
        }
      ],
      "name": "setApprovalForAll",
      "outputs": [],
      "stateMutability": "nonpayable",
      "type": "function"
    },
    {
      "inputs": [
        {
          "internalType": "address",
          "name": "user",
          "type": "address"
        },
        {
          "internalType": "bool",
          "name": "status",
          "type": "bool"
        }
      ],
      "name": "setKYCStatus",
      "outputs": [],
      "stateMutability": "nonpayable",
      "type": "function"
    },
    {
      "inputs": [
        {
          "internalType": "uint256",
          "name": "",
          "type": "uint256"
        }
      ],
      "name": "songAssets",
      "outputs": [
        {
          "internalType": "uint256",
          "name": "maxSupply",
          "type": "uint256"
        },
        {
          "internalType": "uint256",
          "name": "currentSupply",
          "type": "uint256"
        },
        {
          "internalType": "uint256",
          "name": "pricePerToken",
          "type": "uint256"
        },
        {
          "internalType": "string",
          "name": "customUri",
          "type": "string"
        }
      ],
      "stateMutability": "view",
      "type": "function"
    },
    {
      "inputs": [
        {
          "internalType": "bytes4",
          "name": "interfaceId",
          "type": "bytes4"
        }
      ],
      "name": "supportsInterface",
      "outputs": [
        {
          "internalType": "bool",
          "name": "",
          "type": "bool"
        }
      ],
      "stateMutability": "view",
      "type": "function"
    },
    {
      "inputs": [
        {
          "internalType": "uint256",
          "name": "",
          "type": "uint256"
        }
      ],
      "name": "totalReleasedPerToken",
      "outputs": [
        {
          "internalType": "uint256",
          "name": "",
          "type": "uint256"
        }
      ],
      "stateMutability": "view",
      "type": "function"
    },
    {
      "inputs": [],
      "name": "unpause",
      "outputs": [],
      "stateMutability": "nonpayable",
      "type": "function"
    },
    {
      "inputs": [
        {
          "internalType": "uint256",
          "name": "id",
          "type": "uint256"
        }
      ],
      "name": "uri",
      "outputs": [
        {
          "internalType": "string",
          "name": "",
          "type": "string"
        }
      ],
      "stateMutability": "view",
      "type": "function"
    },
    {
      "stateMutability": "payable",
      "type": "receive"
    }
  ],
  "bytecode": "0x60a060405234801562000010575f80fd5b50604051620029d3380380620029d38339810160408190526200003391620001b6565b60408051602081019091525f81526200004c81620000f4565b506001600160a01b038116620000a85760405162461bcd60e51b815260206004820152601560248201527f496e76616c696420746f6b656e20616464726573730000000000000000000000604482015260640160405180910390fd5b620000b45f3362000106565b50620000e17f9f2df0fed2c77648de5860a4cc508cd0818c85b8b8a1ab4ceeef8d981c8956a63362000106565b506001600160a01b03166080526200034f565b600262000102828262000283565b5050565b5f8281526003602090815260408083206001600160a01b038516845290915281205460ff16620001ad575f8381526003602090815260408083206001600160a01b03861684529091529020805460ff19166001179055620001643390565b6001600160a01b0316826001600160a01b0316847f2f8788117e7eff1d82e926ec794901d17c78024a50270940304540a733656f0d60405160405180910390a4506001620001b0565b505f5b92915050565b5f60208284031215620001c7575f80fd5b81516001600160a01b0381168114620001de575f80fd5b9392505050565b634e487b7160e01b5f52604160045260245ffd5b600181811c908216806200020e57607f821691505b6020821081036200022d57634e487b7160e01b5f52602260045260245ffd5b50919050565b601f8211156200027e57805f5260205f20601f840160051c810160208510156200025a5750805b601f840160051c820191505b818110156200027b575f815560010162000266565b50505b505050565b81516001600160401b038111156200029f576200029f620001e5565b620002b781620002b08454620001f9565b8462000233565b602080601f831160018114620002ed575f8415620002d55750858301515b5f19600386901b1c1916600185901b17855562000347565b5f85815260208120601f198616915b828110156200031d57888601518255948401946001909101908401620002fc565b50858210156200033b57878501515f19600388901b60f8161c191681555b505060018460011b0185555b505050505050565b6080516126566200037d5f395f81816102f201528181610b7501528181610e9d015261113b01526126565ff3fe6080604052600436106101bc575f3560e01c806354b7636e116100f2578063a22cb46511610092578063d87aa64311610062578063d87aa64314610568578063e4cfa65a14610587578063e985e9c5146105b2578063f242432a146105f9575f80fd5b8063a22cb465146104d8578063a3f569ae146104f7578063d539139314610516578063d547741f14610549575f80fd5b80638456cb59116100cd5780638456cb591461047357806386ad310f1461048757806391d14854146104a6578063a217fddf146104c5575f80fd5b806354b7636e1461040f5780635c975abb1461043d5780637c98ce8614610454575f80fd5b80633013ce291161015d5780633d4a855c116101385780633d4a855c1461037a5780633f4ba83a14610399578063446799f5146103ad5780634e1273f4146103e3575f80fd5b80633013ce29146102e157806336568abe1461032c5780633d17d5221461034b575f80fd5b8063248a9ca311610198578063248a9ca3146102545780632e439a7a146102825780632eb2c2d6146102a35780632f2ff15d146102c2575f80fd5b8062fdd58e146101c757806301ffc9a7146101f95780630e89341c14610228575f80fd5b366101c357005b5f80fd5b3480156101d2575f80fd5b506101e66101e1366004611dee565b610618565b6040519081526020015b60405180910390f35b348015610204575f80fd5b50610218610213366004611e2b565b61063f565b60405190151581526020016101f0565b348015610233575f80fd5b50610247610242366004611e46565b610649565b6040516101f09190611ea0565b34801561025f575f80fd5b506101e661026e366004611e46565b5f9081526003602052604090206001015490565b34801561028d575f80fd5b506102a161029c366004611f4c565b610706565b005b3480156102ae575f80fd5b506102a16102bd366004612062565b6108ad565b3480156102cd575f80fd5b506102a16102dc366004612105565b6108cc565b3480156102ec575f80fd5b506103147f000000000000000000000000000000000000000000000000000000000000000081565b6040516001600160a01b0390911681526020016101f0565b348015610337575f80fd5b506102a1610346366004612105565b6108f6565b348015610356575f80fd5b5061036a610365366004611e46565b61092e565b6040516101f0949392919061212f565b348015610385575f80fd5b506102a161039436600461215d565b6109de565b3480156103a4575f80fd5b506102a1610c19565b3480156103b8575f80fd5b506101e66103c7366004612105565b600860209081525f928352604080842090915290825290205481565b3480156103ee575f80fd5b506104026103fd36600461217d565b610c2e565b6040516101f09190612271565b34801561041a575f80fd5b50610218610429366004612283565b60066020525f908152604090205460ff1681565b348015610448575f80fd5b5060045460ff16610218565b34801561045f575f80fd5b506102a161046e366004612283565b610cf9565b34801561047e575f80fd5b506102a1610d60565b348015610492575f80fd5b506102a16104a1366004611e46565b610d72565b3480156104b1575f80fd5b506102186104c0366004612105565b610f02565b3480156104d0575f80fd5b506101e65f81565b3480156104e3575f80fd5b506102a16104f236600461229c565b610f2c565b348015610502575f80fd5b506102a161051136600461229c565b610f3b565b348015610521575f80fd5b506101e67f9f2df0fed2c77648de5860a4cc508cd0818c85b8b8a1ab4ceeef8d981c8956a681565b348015610554575f80fd5b506102a1610563366004612105565b610fa4565b348015610573575f80fd5b506102a161058236600461215d565b610fc8565b348015610592575f80fd5b506101e66105a1366004611e46565b60076020525f908152604090205481565b3480156105bd575f80fd5b506102186105cc3660046122d5565b6001600160a01b039182165f90815260016020908152604080832093909416825291909152205460ff1690565b348015610604575f80fd5b506102a16106133660046122fd565b6111da565b5f818152602081815260408083206001600160a01b03861684529091529020545b92915050565b5f610639826111f0565b5f818152600560205260408120600301805460609291906106699061235d565b80601f01602080910402602001604051908101604052809291908181526020018280546106959061235d565b80156106e05780601f106106b7576101008083540402835291602001916106e0565b820191905f5260205f20905b8154815290600101906020018083116106c357829003601f168201915b505050505090505f815111156106f65792915050565b6106ff83611214565b9392505050565b7f9f2df0fed2c77648de5860a4cc508cd0818c85b8b8a1ab4ceeef8d981c8956a6610730816112a6565b5f85815260056020526040902054156107875760405162461bcd60e51b8152602060048201526014602482015273417373657420616c72656164792065786973747360601b60448201526064015b60405180910390fd5b5f84116107cb5760405162461bcd60e51b8152602060048201526012602482015271496e76616c6964206d617820737570706c7960701b604482015260640161077e565b5f8251116108115760405162461bcd60e51b81526020600482015260136024820152725552492063616e6e6f7420626520656d70747960681b604482015260640161077e565b604080516080810182528581525f6020808301828152838501888152606085018881528b85526005909352949092208351815591516001830155925160028201559151909190600382019061086690826123d9565b50905050847fd669d192271666ab5953187f632fbf7c761f95a8541c46baa9879c99cbec58f585858560405161089e93929190612495565b60405180910390a25050505050565b6108b8335b866112b0565b6108c58585858585611328565b5050505050565b5f828152600360205260409020600101546108e6816112a6565b6108f08383611388565b50505050565b6001600160a01b038116331461091f5760405163334bd91960e11b815260040160405180910390fd5b6109298282611419565b505050565b60056020525f908152604090208054600182015460028301546003840180549394929391929161095d9061235d565b80601f01602080910402602001604051908101604052809291908181526020018280546109899061235d565b80156109d45780601f106109ab576101008083540402835291602001916109d4565b820191905f5260205f20905b8154815290600101906020018083116109b757829003601f168201915b5050505050905084565b7f9f2df0fed2c77648de5860a4cc508cd0818c85b8b8a1ab4ceeef8d981c8956a6610a08816112a6565b5f60055f8581526020019081526020015f206040518060800160405290815f82015481526020016001820154815260200160028201548152602001600382018054610a529061235d565b80601f0160208091040260200160405190810160405280929190818152602001828054610a7e9061235d565b8015610ac95780601f10610aa057610100808354040283529160200191610ac9565b820191905f5260205f20905b815481529060010190602001808311610aac57829003601f168201915b50505050508152505090505f815f015111610b1d5760405162461bcd60e51b8152602060048201526014602482015273105cdcd95d08191bd95cc81b9bdd08195e1a5cdd60621b604482015260640161077e565b5f816020015111610b685760405162461bcd60e51b81526020600482015260156024820152744e6f20746f6b656e732063697263756c6174696e6760581b604482015260640161077e565b610b9d6001600160a01b037f000000000000000000000000000000000000000000000000000000000000000016333086611484565b60208101515f90610bb685670de0b6b3a76400006124d0565b610bc091906124e7565b90508060075f8781526020019081526020015f205f828254610be29190612506565b909155505060405184815285907fc429605ac291edfeea417caaecf1c5a5f6e6f150482a9c16a825780318e7b4139060200161089e565b5f610c23816112a6565b610c2b6114ba565b50565b60608151835114610c5f5781518351604051635b05999160e01b81526004810192909252602482015260440161077e565b5f835167ffffffffffffffff811115610c7a57610c7a611eb2565b604051908082528060200260200182016040528015610ca3578160200160208202803683370190505b5090505f5b8451811015610cf157602080820286010151610ccc90602080840287010151610618565b828281518110610cde57610cde612519565b6020908102919091010152600101610ca8565b509392505050565b5f610d03816112a6565b6001600160a01b0382165f81815260066020908152604091829020805460ff1916600190811790915591519182527f3a620c3544f4661f38b303e51ff3c4cc552da5a80ec55d4e3875af78775e1a82910160405180910390a25050565b5f610d6a816112a6565b610c2b61150c565b610d7a611549565b5f610d853383610618565b90505f8111610dc85760405162461bcd60e51b815260206004820152600f60248201526e139bc81d1bdad95b9cc81bdddb9959608a1b604482015260640161077e565b5f82815260076020526040812054670de0b6b3a764000090610dea90846124d0565b610df491906124e7565b5f848152600860209081526040808320338452909152812054919250610e1a828461252d565b90505f8111610e625760405162461bcd60e51b81526020600482015260146024820152734e6f20726f79616c746965732070656e64696e6760601b604482015260640161077e565b5f85815260086020908152604080832033845290915281208054839290610e8a908490612506565b90915550610ec490506001600160a01b037f000000000000000000000000000000000000000000000000000000000000000016338361156f565b604051818152859033907fe8b227608a9f7a76ba7179993674544e97415b5c83dfa3b1f21d6037db038fd29060200160405180910390a35050505050565b5f9182526003602090815260408084206001600160a01b0393909316845291905290205460ff1690565b610f373383836115a4565b5050565b5f610f45816112a6565b6001600160a01b0383165f81815260066020908152604091829020805460ff191686151590811790915591519182527f3a620c3544f4661f38b303e51ff3c4cc552da5a80ec55d4e3875af78775e1a82910160405180910390a2505050565b5f82815260036020526040902060010154610fbe816112a6565b6108f08383611419565b610fd0611549565b335f9081526006602052604090205460ff1661102e5760405162461bcd60e51b815260206004820152601b60248201527f4b594320726571756972656420666f7220696e766573746d656e740000000000604482015260640161077e565b5f82815260056020526040902080546110805760405162461bcd60e51b8152602060048201526014602482015273105cdcd95d08191bd95cc81b9bdd08195e1a5cdd60621b604482015260640161077e565b80546001820154611092908490612506565b11156110d55760405162461bcd60e51b815260206004820152601260248201527145786365656473206d617820737570706c7960701b604482015260640161077e565b5f821161111b5760405162461bcd60e51b815260206004820152601460248201527305175616e74697479206d757374206265203e20360641b604482015260640161077e565b5f82826002015461112c91906124d0565b90506111636001600160a01b037f000000000000000000000000000000000000000000000000000000000000000016333084611484565b82826001015f8282546111769190612506565b9250508190555061119733858560405180602001604052805f815250611661565b6040805184815260208101839052859133917f3bdff14eed6ddd6ca85e178ed7df644a6a676c0796374ce875e380bc74a28e78910160405180910390a350505050565b6111e3336108b2565b6108c585858585856116c5565b5f6001600160e01b03198216637965db0b60e01b1480610639575061063982611752565b6060600280546112239061235d565b80601f016020809104026020016040519081016040528092919081815260200182805461124f9061235d565b801561129a5780601f106112715761010080835404028352916020019161129a565b820191905f5260205f20905b81548152906001019060200180831161127d57829003601f168201915b50505050509050919050565b610c2b81336117a1565b816001600160a01b0316816001600160a01b0316141580156112f757506001600160a01b038082165f9081526001602090815260408083209386168352929052205460ff16155b15610f375760405163711bec9160e11b81526001600160a01b0380841660048301528216602482015260440161077e565b6001600160a01b03841661135157604051632bfa23e760e11b81525f600482015260240161077e565b6001600160a01b03851661137957604051626a0d4560e21b81525f600482015260240161077e565b6108c5858585858560016117da565b5f6113938383610f02565b611412575f8381526003602090815260408083206001600160a01b03861684529091529020805460ff191660011790556113ca3390565b6001600160a01b0316826001600160a01b0316847f2f8788117e7eff1d82e926ec794901d17c78024a50270940304540a733656f0d60405160405180910390a4506001610639565b505f610639565b5f6114248383610f02565b15611412575f8381526003602090815260408083206001600160a01b0386168085529252808320805460ff1916905551339286917ff6391f5c32d9c69d2a47ea670b442974b53935d1edc7fd64eb21e047a839171b9190a4506001610639565b611492848484846001611832565b6108f057604051635274afe760e01b81526001600160a01b038516600482015260240161077e565b6114c261189f565b6004805460ff191690557f5db9ee0a495bf2e6ff9c91a7834c1ba4fdd244a5e8aa4e537bd38aeae4b073aa335b6040516001600160a01b03909116815260200160405180910390a1565b611514611549565b6004805460ff191660011790557f62e78cea01bee320cd4e420270b5ea74000d11b0c9f74754ebdbfc544b05a2586114ef3390565b60045460ff161561156d5760405163d93c066560e01b815260040160405180910390fd5b565b61157c83838360016118c2565b61092957604051635274afe760e01b81526001600160a01b038416600482015260240161077e565b6001600160a01b0383166115cd57604051631f18c42760e11b81525f600482015260240161077e565b6001600160a01b0382166115f55760405162ced3e160e81b81525f600482015260240161077e565b6001600160a01b038381165f81815260016020908152604080832094871680845294825291829020805460ff191686151590811790915591519182527f17307eab39ab6107e8899845ad3d59bd9653f200f220920489ca2b5937696c31910160405180910390a3505050565b6001600160a01b03841661168a57604051632bfa23e760e11b81525f600482015260240161077e565b604080516001808252602082018690528183019081526060820185905260808201909252906116bd5f87848487846117da565b505050505050565b6001600160a01b0384166116ee57604051632bfa23e760e11b81525f600482015260240161077e565b6001600160a01b03851661171657604051626a0d4560e21b81525f600482015260240161077e565b6040805160018082526020820186905281830190815260608201859052608082019092529061174987878484875f6117da565b50505050505050565b5f6001600160e01b03198216636cdb3d1360e11b148061178257506001600160e01b031982166303a24d0760e21b145b8061063957506301ffc9a760e01b6001600160e01b0319831614610639565b6117ab8282610f02565b610f375760405163e2517d3f60e01b81526001600160a01b03821660048201526024810183905260440161077e565b6117e686868686611924565b6001600160a01b038516156116bd5733811561180f5761180a8188888888886119bc565b611749565b60208581015190850151611827838a8a85858a611add565b505050505050505050565b6040516323b872dd60e01b5f8181526001600160a01b038781166004528616602452604485905291602083606481808c5af1925060015f5114831661188e578383151615611882573d5f823e3d81fd5b5f883b113d1516831692505b604052505f60605295945050505050565b60045460ff1661156d57604051638dfc202b60e01b815260040160405180910390fd5b60405163a9059cbb60e01b5f8181526001600160a01b038616600452602485905291602083604481808b5af1925060015f5114831661191857838315161561190c573d5f823e3d81fd5b5f873b113d1516831692505b60405250949350505050565b6001600160a01b0384161580159061194457506001600160a01b03831615155b156119b0576001600160a01b0383165f9081526006602052604090205460ff166119b05760405162461bcd60e51b815260206004820152601c60248201527f5265636569766572206973206e6f74204b594320766572696669656400000000604482015260640161077e565b6108f084848484611bc4565b6001600160a01b0384163b156116bd5760405163bc197c8160e01b81526001600160a01b0385169063bc197c8190611a009089908990889088908890600401612540565b6020604051808303815f875af1925050508015611a3a575060408051601f3d908101601f19168201909252611a379181019061259d565b60015b611aa1573d808015611a67576040519150601f19603f3d011682016040523d82523d5f602084013e611a6c565b606091505b5080515f03611a9957604051632bfa23e760e11b81526001600160a01b038616600482015260240161077e565b805160208201fd5b6001600160e01b0319811663bc197c8160e01b1461174957604051632bfa23e760e11b81526001600160a01b038616600482015260240161077e565b6001600160a01b0384163b156116bd5760405163f23a6e6160e01b81526001600160a01b0385169063f23a6e6190611b2190899089908890889088906004016125b8565b6020604051808303815f875af1925050508015611b5b575060408051601f3d908101601f19168201909252611b589181019061259d565b60015b611b88573d808015611a67576040519150601f19603f3d011682016040523d82523d5f602084013e611a6c565b6001600160e01b0319811663f23a6e6160e01b1461174957604051632bfa23e760e11b81526001600160a01b038616600482015260240161077e565b8051825114611bf35781518151604051635b05999160e01b81526004810192909252602482015260440161077e565b335f5b8351811015611cf5576020818102858101820151908501909101516001600160a01b03881615611ca7575f828152602081815260408083206001600160a01b038c16845290915290205481811015611c81576040516303dee4c560e01b81526001600160a01b038a16600482015260248101829052604481018390526064810184905260840161077e565b5f838152602081815260408083206001600160a01b038d16845290915290209082900390555b6001600160a01b03871615611ceb575f828152602081815260408083206001600160a01b038b16845290915281208054839290611ce5908490612506565b90915550505b5050600101611bf6565b508251600103611d755760208301515f906020840151909150856001600160a01b0316876001600160a01b0316846001600160a01b03167fc3d58168c5ae7397731d063d5bbf3d657854427343f4c083240f7aacaa2d0f628585604051611d66929190918252602082015260400190565b60405180910390a450506108c5565b836001600160a01b0316856001600160a01b0316826001600160a01b03167f4a39dc06d4c0dbc64b70af90fd698a233a518aa5d07e595d983b8c0526c8f7fb8686604051611dc49291906125fc565b60405180910390a45050505050565b80356001600160a01b0381168114611de9575f80fd5b919050565b5f8060408385031215611dff575f80fd5b611e0883611dd3565b946020939093013593505050565b6001600160e01b031981168114610c2b575f80fd5b5f60208284031215611e3b575f80fd5b81356106ff81611e16565b5f60208284031215611e56575f80fd5b5035919050565b5f81518084525f5b81811015611e8157602081850181015186830182015201611e65565b505f602082860101526020601f19601f83011685010191505092915050565b602081525f6106ff6020830184611e5d565b634e487b7160e01b5f52604160045260245ffd5b604051601f8201601f1916810167ffffffffffffffff81118282101715611eef57611eef611eb2565b604052919050565b5f67ffffffffffffffff831115611f1057611f10611eb2565b611f23601f8401601f1916602001611ec6565b9050828152838383011115611f36575f80fd5b828260208301375f602084830101529392505050565b5f805f8060808587031215611f5f575f80fd5b843593506020850135925060408501359150606085013567ffffffffffffffff811115611f8a575f80fd5b8501601f81018713611f9a575f80fd5b611fa987823560208401611ef7565b91505092959194509250565b5f67ffffffffffffffff821115611fce57611fce611eb2565b5060051b60200190565b5f82601f830112611fe7575f80fd5b81356020611ffc611ff783611fb5565b611ec6565b8083825260208201915060208460051b87010193508684111561201d575f80fd5b602086015b848110156120395780358352918301918301612022565b509695505050505050565b5f82601f830112612053575f80fd5b6106ff83833560208501611ef7565b5f805f805f60a08688031215612076575f80fd5b61207f86611dd3565b945061208d60208701611dd3565b9350604086013567ffffffffffffffff808211156120a9575f80fd5b6120b589838a01611fd8565b945060608801359150808211156120ca575f80fd5b6120d689838a01611fd8565b935060808801359150808211156120eb575f80fd5b506120f888828901612044565b9150509295509295909350565b5f8060408385031215612116575f80fd5b8235915061212660208401611dd3565b90509250929050565b848152836020820152826040820152608060608201525f6121536080830184611e5d565b9695505050505050565b5f806040838503121561216e575f80fd5b50508035926020909101359150565b5f806040838503121561218e575f80fd5b823567ffffffffffffffff808211156121a5575f80fd5b818501915085601f8301126121b8575f80fd5b813560206121c8611ff783611fb5565b82815260059290921b840181019181810190898411156121e6575f80fd5b948201945b8386101561220b576121fc86611dd3565b825294820194908201906121eb565b96505086013592505080821115612220575f80fd5b5061222d85828601611fd8565b9150509250929050565b5f815180845260208085019450602084015f5b838110156122665781518752958201959082019060010161224a565b509495945050505050565b602081525f6106ff6020830184612237565b5f60208284031215612293575f80fd5b6106ff82611dd3565b5f80604083850312156122ad575f80fd5b6122b683611dd3565b9150602083013580151581146122ca575f80fd5b809150509250929050565b5f80604083850312156122e6575f80fd5b6122ef83611dd3565b915061212660208401611dd3565b5f805f805f60a08688031215612311575f80fd5b61231a86611dd3565b945061232860208701611dd3565b93506040860135925060608601359150608086013567ffffffffffffffff811115612351575f80fd5b6120f888828901612044565b600181811c9082168061237157607f821691505b60208210810361238f57634e487b7160e01b5f52602260045260245ffd5b50919050565b601f82111561092957805f5260205f20601f840160051c810160208510156123ba5750805b601f840160051c820191505b818110156108c5575f81556001016123c6565b815167ffffffffffffffff8111156123f3576123f3611eb2565b61240781612401845461235d565b84612395565b602080601f83116001811461243a575f84156124235750858301515b5f19600386901b1c1916600185901b1785556116bd565b5f85815260208120601f198616915b8281101561246857888601518255948401946001909101908401612449565b508582101561248557878501515f19600388901b60f8161c191681555b5050505050600190811b01905550565b838152826020820152606060408201525f6124b36060830184611e5d565b95945050505050565b634e487b7160e01b5f52601160045260245ffd5b8082028115828204841417610639576106396124bc565b5f8261250157634e487b7160e01b5f52601260045260245ffd5b500490565b80820180821115610639576106396124bc565b634e487b7160e01b5f52603260045260245ffd5b81810381811115610639576106396124bc565b6001600160a01b0386811682528516602082015260a0604082018190525f9061256b90830186612237565b828103606084015261257d8186612237565b905082810360808401526125918185611e5d565b98975050505050505050565b5f602082840312156125ad575f80fd5b81516106ff81611e16565b6001600160a01b03868116825285166020820152604081018490526060810183905260a0608082018190525f906125f190830184611e5d565b979650505050505050565b604081525f61260e6040830185612237565b82810360208401526124b3818561223756fea2646970667358221220122494f6cab46852429d9d0ba9f95b362af5696b1b63c53caaa3ebf980b4d58164736f6c63430008180033",
  "linkReferences": {},
  "deployedLinkReferences": {}
}